{
  "contractName": "CrowdFundingFactory",
  "abi": [
    {
      "constant": true,
      "inputs": [
        {
          "name": "",
          "type": "uint256"
        }
      ],
      "name": "deployedCampaigns",
      "outputs": [
        {
          "name": "",
          "type": "address"
        }
      ],
      "payable": false,
      "stateMutability": "view",
      "type": "function"
    },
    {
      "constant": true,
      "inputs": [],
      "name": "owner",
      "outputs": [
        {
          "name": "",
          "type": "address"
        }
      ],
      "payable": false,
      "stateMutability": "view",
      "type": "function"
    },
    {
      "anonymous": false,
      "inputs": [
        {
          "indexed": false,
          "name": "",
          "type": "uint256"
        },
        {
          "indexed": false,
          "name": "title",
          "type": "string"
        },
        {
          "indexed": false,
          "name": "desc",
          "type": "string"
        },
        {
          "indexed": false,
          "name": "goal",
          "type": "uint256"
        },
        {
          "indexed": false,
          "name": "campaignAddress",
          "type": "address"
        }
      ],
      "name": "displayCampaigns",
      "type": "function",
      "constant": true,
      "outputs": [
        {
          "name": "",
          "type": "address"
        }
      ],
      "payable": false,
      "stateMutability": "view"
    },
    {
      "constant": false,
      "inputs": [
        {
          "name": "minimum",
          "type": "uint256",
          "indexed": false
        },
        {
          "name": "title",
          "type": "string",
          "indexed": false
        },
        {
          "name": "desc",
          "type": "string",
          "indexed": false
        },
        {
          "name": "goal",
          "type": "uint256",
          "indexed": false
        },
        {
          "indexed": false,
          "name": "campaignAddress",
          "type": "address"
        }
      ],
      "name": "LogCampaignCreated",
      "outputs": [],
      "payable": false,
      "stateMutability": "nonpayable",
      "type": "event",
      "anonymous": false
    },
    {
      "constant": false,
      "inputs": [
        {
          "name": "_title",
          "type": "string"
        },
        {
          "name": "_description",
          "type": "string"
        },
        {
          "name": "_minimum",
          "type": "uint256"
        },
        {
          "name": "_goal",
          "type": "uint256"
        }
      ],
      "name": "createCampaign",
      "outputs": [
        {
          "name": "",
          "type": "address[]"
        }
      ],
      "payable": false,
      "stateMutability": "nonpayable",
      "type": "function"
    },
    {
      "constant": false,
      "inputs": [],
      "name": "getDeployedCampaigns",
      "outputs": [
        {
          "name": "",
          "type": "address[]"
        }
      ],
      "payable": false,
      "stateMutability": "nonpayable",
      "type": "function"
    }
  ],
  "bytecode": "0x6080604052336000806101000a81548173ffffffffffffffffffffffffffffffffffffffff021916908373ffffffffffffffffffffffffffffffffffffffff16021790555034801561005057600080fd5b50611947806100606000396000f3fe60806040526004361061006d576000357c0100000000000000000000000000000000000000000000000000000000900463ffffffff168063339d50a5146100725780634acb9d4f146100ed5780638da5cb5b14610159578063a318f269146101b0578063b93d48d614610323575b600080fd5b34801561007e57600080fd5b506100ab6004803603602081101561009557600080fd5b810190808035906020019092919050505061039e565b604051808273ffffffffffffffffffffffffffffffffffffffff1673ffffffffffffffffffffffffffffffffffffffff16815260200191505060405180910390f35b3480156100f957600080fd5b506101026103dc565b6040518080602001828103825283818151815260200191508051906020019060200280838360005b8381101561014557808201518184015260208101905061012a565b505050509050019250505060405180910390f35b34801561016557600080fd5b5061016e610542565b604051808273ffffffffffffffffffffffffffffffffffffffff1673ffffffffffffffffffffffffffffffffffffffff16815260200191505060405180910390f35b3480156101bc57600080fd5b50610321600480360360808110156101d357600080fd5b81019080803590602001906401000000008111156101f057600080fd5b82018360208201111561020257600080fd5b8035906020019184600183028401116401000000008311171561022457600080fd5b91908080601f016020809104026020016040519081016040528093929190818152602001838380828437600081840152601f19601f8201169050808301925050505050505091929192908035906020019064010000000081111561028757600080fd5b82018360208201111561029957600080fd5b803590602001918460018302840111640100000000831117156102bb57600080fd5b91908080601f016020809104026020016040519081016040528093929190818152602001838380828437600081840152601f19601f8201169050808301925050505050505091929192908035906020019092919080359060200190929190505050610567565b005b34801561032f57600080fd5b5061035c6004803603602081101561034657600080fd5b810190808035906020019092919050505061088c565b604051808273ffffffffffffffffffffffffffffffffffffffff1673ffffffffffffffffffffffffffffffffffffffff16815260200191505060405180910390f35b6001818154811015156103ad57fe5b906000526020600020016000915054906101000a900473ffffffffffffffffffffffffffffffffffffffff1681565b606060006003549050600180549050811080156103fb575062030d405a115b15610536578080600101915050600260018281548110151561041957fe5b9060005260206000200160009054906101000a900473ffffffffffffffffffffffffffffffffffffffff1690806001815401808255809150509060018203906000526020600020016000909192909190916101000a81548173ffffffffffffffffffffffffffffffffffffffff021916908373ffffffffffffffffffffffffffffffffffffffff16021790555050600280548060200260200160405190810160405280929190818152602001828054801561052957602002820191906000526020600020905b8160009054906101000a900473ffffffffffffffffffffffffffffffffffffffff1673ffffffffffffffffffffffffffffffffffffffff16815260200190600101908083116104df575b505050505091505061053f565b80600381905550505b90565b6000809054906101000a900473ffffffffffffffffffffffffffffffffffffffff1681565b6000848484846000809054906101000a900473ffffffffffffffffffffffffffffffffffffffff166105976108ca565b8080602001806020018681526020018581526020018473ffffffffffffffffffffffffffffffffffffffff1673ffffffffffffffffffffffffffffffffffffffff168152602001838103835288818151815260200191508051906020019080838360005b838110156106165780820151818401526020810190506105fb565b50505050905090810190601f1680156106435780820380516001836020036101000a031916815260200191505b50838103825287818151815260200191508051906020019080838360005b8381101561067c578082015181840152602081019050610661565b50505050905090810190601f1680156106a95780820380516001836020036101000a031916815260200191505b50975050505050505050604051809103906000f0801580156106cf573d6000803e3d6000fd5b50905060018190806001815401808255809150509060018203906000526020600020016000909192909190916101000a81548173ffffffffffffffffffffffffffffffffffffffff021916908373ffffffffffffffffffffffffffffffffffffffff160217905550507feba312fe310b6f5351b2069afdf2767db00b643cbedb90702374816fbf299b8983868685856040518086815260200180602001806020018581526020018473ffffffffffffffffffffffffffffffffffffffff1673ffffffffffffffffffffffffffffffffffffffff168152602001838103835287818151815260200191508051906020019080838360005b838110156107e05780820151818401526020810190506107c5565b50505050905090810190601f16801561080d5780820380516001836020036101000a031916815260200191505b50838103825286818151815260200191508051906020019080838360005b8381101561084657808201518184015260208101905061082b565b50505050905090810190601f1680156108735780820380516001836020036101000a031916815260200191505b5097505050505050505060405180910390a15050505050565b60028181548110151561089b57fe5b906000526020600020016000915054906101000a900473ffffffffffffffffffffffffffffffffffffffff1681565b604051611041806108db8339019056fe60806040526000600760016101000a81548160ff0219169083151502179055503480156200002c57600080fd5b506040516200104138038062001041833981018060405260a08110156200005257600080fd5b8101908080516401000000008111156200006b57600080fd5b828101905060208101848111156200008257600080fd5b8151856001820283011164010000000082111715620000a057600080fd5b50509291906020018051640100000000811115620000bd57600080fd5b82810190506020810184811115620000d457600080fd5b8151856001820283011164010000000082111715620000f257600080fd5b5050929190602001805190602001909291908051906020019092919080519060200190929190505050846001908051906020019062000133929190620001c1565b5083600390805190602001906200014c929190620001c1565b5082600481905550816005819055506001600760006101000a81548160ff021916908315150217905550806000806101000a81548173ffffffffffffffffffffffffffffffffffffffff021916908373ffffffffffffffffffffffffffffffffffffffff160217905550505050505062000270565b828054600181600116156101000203166002900490600052602060002090601f016020900481019282601f106200020457805160ff191683800117855562000235565b8280016001018555821562000235579182015b828111156200023457825182559160200191906001019062000217565b5b50905062000244919062000248565b5090565b6200026d91905b80821115620002695760008160009055506001016200024f565b5090565b90565b610dc180620002806000396000f3fe6080604052600436106100ba576000357c0100000000000000000000000000000000000000000000000000000000900463ffffffff16806316efd941146100bf5780633ccfd60b146100d657806342320eac146100ed57806347535d7b146101185780634a79d50c146101475780637284e416146101d75780637569b3d71461026757806375f12b21146102925780638c906720146102c15780638da5cb5b146103dd578063937e09b114610434578063d7bb99ba1461045f575b600080fd5b3480156100cb57600080fd5b506100d4610469565b005b3480156100e257600080fd5b506100eb610559565b005b3480156100f957600080fd5b50610102610767565b6040518082815260200191505060405180910390f35b34801561012457600080fd5b5061012d61076d565b604051808215151515815260200191505060405180910390f35b34801561015357600080fd5b5061015c610780565b6040518080602001828103825283818151815260200191508051906020019080838360005b8381101561019c578082015181840152602081019050610181565b50505050905090810190601f1680156101c95780820380516001836020036101000a031916815260200191505b509250505060405180910390f35b3480156101e357600080fd5b506101ec61081e565b6040518080602001828103825283818151815260200191508051906020019080838360005b8381101561022c578082015181840152602081019050610211565b50505050905090810190601f1680156102595780820380516001836020036101000a031916815260200191505b509250505060405180910390f35b34801561027357600080fd5b5061027c6108bc565b6040518082815260200191505060405180910390f35b34801561029e57600080fd5b506102a76108c2565b604051808215151515815260200191505060405180910390f35b3480156102cd57600080fd5b506102d66108d5565b60405180806020018060200187815260200186815260200185151515158152602001848152602001838103835289818151815260200191508051906020019080838360005b8381101561033657808201518184015260208101905061031b565b50505050905090810190601f1680156103635780820380516001836020036101000a031916815260200191505b50838103825288818151815260200191508051906020019080838360005b8381101561039c578082015181840152602081019050610381565b50505050905090810190601f1680156103c95780820380516001836020036101000a031916815260200191505b509850505050505050505060405180910390f35b3480156103e957600080fd5b506103f2610a41565b604051808273ffffffffffffffffffffffffffffffffffffffff1673ffffffffffffffffffffffffffffffffffffffff16815260200191505060405180910390f35b34801561044057600080fd5b50610449610a66565b6040518082815260200191505060405180910390f35b610467610a6c565b005b6000809054906101000a900473ffffffffffffffffffffffffffffffffffffffff1673ffffffffffffffffffffffffffffffffffffffff163373ffffffffffffffffffffffffffffffffffffffff1614151561052d576040517f08c379a00000000000000000000000000000000000000000000000000000000081526004018080602001828103825260158152602001807f596f75206d75737420626520746865206f776e6572000000000000000000000081525060200191505060405180910390fd5b600760019054906101000a900460ff1615600760016101000a81548160ff021916908315150217905550565b600760019054906101000a900460ff1615151561057557600080fd5b6000809054906101000a900473ffffffffffffffffffffffffffffffffffffffff1673ffffffffffffffffffffffffffffffffffffffff163373ffffffffffffffffffffffffffffffffffffffff16141515610639576040517f08c379a00000000000000000000000000000000000000000000000000000000081526004018080602001828103825260158152602001807f596f75206d75737420626520746865206f776e6572000000000000000000000081525060200191505060405180910390fd5b6000600760006101000a81548160ff02191690831515021790555060003073ffffffffffffffffffffffffffffffffffffffff163190506000809054906101000a900473ffffffffffffffffffffffffffffffffffffffff1673ffffffffffffffffffffffffffffffffffffffff166108fc829081150290604051600060405180830381858888f193505050501580156106d7573d6000803e3d6000fd5b507fd51f0a23ce80980fe2651d568650978fa322ae0db39b80bbafd804c8f84d6ea16000809054906101000a900473ffffffffffffffffffffffffffffffffffffffff1682604051808373ffffffffffffffffffffffffffffffffffffffff1673ffffffffffffffffffffffffffffffffffffffff1681526020018281526020019250505060405180910390a150565b60055481565b600760009054906101000a900460ff1681565b60018054600181600116156101000203166002900480601f0160208091040260200160405190810160405280929190818152602001828054600181600116156101000203166002900480156108165780601f106107eb57610100808354040283529160200191610816565b820191906000526020600020905b8154815290600101906020018083116107f957829003601f168201915b505050505081565b60038054600181600116156101000203166002900480601f0160208091040260200160405190810160405280929190818152602001828054600181600116156101000203166002900480156108b45780601f10610889576101008083540402835291602001916108b4565b820191906000526020600020905b81548152906001019060200180831161089757829003601f168201915b505050505081565b60065481565b600760019054906101000a900460ff1681565b60608060008060008060018054600181600116156101000203166002900480601f0160208091040260200160405190810160405280929190818152602001828054600181600116156101000203166002900480156109745780601f1061094957610100808354040283529160200191610974565b820191906000526020600020905b81548152906001019060200180831161095757829003601f168201915b5050505050955060038054600181600116156101000203166002900480601f016020809104026020016040519081016040528092919081815260200182805460018160011615610100020316600290048015610a115780601f106109e657610100808354040283529160200191610a11565b820191906000526020600020905b8154815290600101906020018083116109f457829003601f168201915b5050505050945060045493506005549250600760009054906101000a900460ff1691506006549050909192939495565b6000809054906101000a900473ffffffffffffffffffffffffffffffffffffffff1681565b60045481565b600760019054906101000a900460ff16151515610a8857600080fd5b6000809054906101000a900473ffffffffffffffffffffffffffffffffffffffff1673ffffffffffffffffffffffffffffffffffffffff163373ffffffffffffffffffffffffffffffffffffffff1614151515610b4d576040517f08c379a00000000000000000000000000000000000000000000000000000000081526004018080602001828103825260198152602001807f596f75206d757374206265206120636f6e7472696275746f720000000000000081525060200191505060405180910390fd5b60011515600760009054906101000a900460ff161515141515610bd8576040517f08c379a00000000000000000000000000000000000000000000000000000000081526004018080602001828103825260208152602001807f5468652063726f776466756e64206973206e6f206c6f6e676572206f70656e2e81525060200191505060405180910390fd5b60045434111515610c77576040517f08c379a00000000000000000000000000000000000000000000000000000000081526004018080602001828103825260378152602001807f54686520636f6e747269627574696f6e206d7573742062652061626f7665207481526020017f6865206d696e696d756d20436f6e747269627574696f6e00000000000000000081525060400191505060405180910390fd5b6001600260003373ffffffffffffffffffffffffffffffffffffffff1673ffffffffffffffffffffffffffffffffffffffff16815260200190815260200160002060006101000a81548160ff0219169083151502179055503373ffffffffffffffffffffffffffffffffffffffff166108fc349081150290604051600060405180830381858888f19350505050158015610d15573d6000803e3d6000fd5b506006600081548092919060010191905055507f370510fa7e8c74204b8d2fd52b7a0837e535ea0c1491fd4e13730ce825e405243334604051808373ffffffffffffffffffffffffffffffffffffffff1673ffffffffffffffffffffffffffffffffffffffff1681526020018281526020019250505060405180910390a156fea165627a7a723058203d0ec9731e5ea013f46e2ac12c9cd9b579f6f7ca4019fbcec480e9b5a8e6b07c0029a165627a7a72305820baaaf2714b2a88e948b990039932266c62c3faea034a3509012ad57aea3687020029",
  "source": "pragma solidity ^0.5.0;\n\nimport \"./CrowdFunding.sol\";\nimport \"./SafeMath.sol\";\n\ncontract CrowdFundingFactory {\n    using SafeMath for uint256; //OpenZeppelin's Safe Math Library\n\n    address payable public owner = msg.sender; //The creator/owner of the campaign\n    CrowdFunding[] public deployedCampaigns; //list of campaigns created\n    CrowdFunding[] public displayCampaigns; //Prevents a Denial of Service by Block Gas Limit due to unknow size of array\n    uint256 nextCampaignIndex;\n\n    //event which logs the creation of a campaign, campaign address is used for testing\n    event LogCampaignCreated(uint256 minimum, string title, string desc, uint256 goal, address campaignAddress);\n\n    /// @author Alex Coury\n    /// @notice Intializes the CrowdFunding campaign contract all set by the owner\n    /// @param _title The title of the project\n    /// @param _description The description of the project\n    /// @param _minimum The minimum of the project that contributors can donate\n    /// @param _goal The target goal of the project\n    function createCampaign(string memory _title, string memory _description, uint256 _minimum, uint256 _goal) public {\n        CrowdFunding newCampaign = new CrowdFunding(_title, _description, _minimum, _goal, owner);\n        deployedCampaigns.push(newCampaign);\n        emit LogCampaignCreated(_minimum, _title, _description, _goal, address(newCampaign));\n    }\n\n    /// @author Alex Coury\n    /// @notice Gets the list of Crowdfunding campaigns that have been created\n    /// @return The function returns an array containing all the deployed addresses\n    function getDeployedCampaigns() public returns (CrowdFunding[] memory) {\n        uint256 i = nextCampaignIndex;\n        while (i < deployedCampaigns.length && gasleft() > 200000) {\n        i++;\n        displayCampaigns.push(deployedCampaigns[i]);\n        return displayCampaigns;\n        }\n        nextCampaignIndex = i;\n    }\n}",
  "sourcePath": "/Users/alexcoury/Projects/ConsenSys-Final-Project-1/contracts/CrowdFundingFactory.sol",
  "compiler": {
    "name": "solc",
    "version": "0.5.0+commit.1d4f565a.Emscripten.clang"
  },
  "schemaVersion": "3.0.9",
  "updatedAt": "2019-07-31T23:04:17.120Z",
  "devdoc": {
    "methods": {
      "createCampaign(string,string,uint256,uint256)": {
        "author": "Alex Coury",
        "params": {
          "_description": "The description of the project",
          "_goal": "The target goal of the project",
          "_minimum": "The minimum of the project that contributors can donate",
          "_title": "The title of the project"
        }
      },
      "getDeployedCampaigns()": {
        "author": "Alex Coury",
        "return": "The function returns an array containing all the deployed addresses"
      }
    }
  },
  "userdoc": {
    "methods": {
      "createCampaign(string,string,uint256,uint256)": {
        "notice": "Intializes the CrowdFunding campaign contract all set by the owner"
      },
      "getDeployedCampaigns()": {
        "notice": "Gets the list of Crowdfunding campaigns that have been created"
      }
    }
  }
}