{
  "contractName": "CrowdFunding",
  "abi": [
    {
      "constant": true,
      "inputs": [],
      "name": "targetGoal",
      "outputs": [
        {
          "name": "",
          "type": "uint256"
        }
      ],
      "payable": false,
      "stateMutability": "view",
      "type": "function"
    },
    {
      "constant": true,
      "inputs": [],
      "name": "isOpen",
      "outputs": [
        {
          "name": "",
          "type": "bool"
        }
      ],
      "payable": false,
      "stateMutability": "view",
      "type": "function"
    },
    {
      "constant": true,
      "inputs": [],
      "name": "title",
      "outputs": [
        {
          "name": "",
          "type": "string"
        }
      ],
      "payable": false,
      "stateMutability": "view",
      "type": "function"
    },
    {
      "constant": true,
      "inputs": [],
      "name": "description",
      "outputs": [
        {
          "name": "",
          "type": "string"
        }
      ],
      "payable": false,
      "stateMutability": "view",
      "type": "function"
    },
    {
      "constant": true,
      "inputs": [],
      "name": "contributorsCount",
      "outputs": [
        {
          "name": "",
          "type": "uint256"
        }
      ],
      "payable": false,
      "stateMutability": "view",
      "type": "function"
    },
    {
      "constant": true,
      "inputs": [],
      "name": "stopped",
      "outputs": [
        {
          "name": "",
          "type": "bool"
        }
      ],
      "payable": false,
      "stateMutability": "view",
      "type": "function"
    },
    {
      "constant": true,
      "inputs": [],
      "name": "owner",
      "outputs": [
        {
          "name": "",
          "type": "address"
        }
      ],
      "payable": false,
      "stateMutability": "view",
      "type": "function"
    },
    {
      "constant": true,
      "inputs": [],
      "name": "minimumContribution",
      "outputs": [
        {
          "name": "",
          "type": "uint256"
        }
      ],
      "payable": false,
      "stateMutability": "view",
      "type": "function"
    },
    {
      "inputs": [
        {
          "name": "_title",
          "type": "string"
        },
        {
          "name": "_description",
          "type": "string"
        },
        {
          "name": "_minimum",
          "type": "uint256"
        },
        {
          "name": "_goal",
          "type": "uint256"
        },
        {
          "name": "_owner",
          "type": "address"
        }
      ],
      "payable": false,
      "stateMutability": "nonpayable",
      "type": "constructor"
    },
    {
      "anonymous": false,
      "inputs": [
        {
          "indexed": false,
          "name": "contributor",
          "type": "address"
        },
        {
          "indexed": false,
          "name": "value",
          "type": "uint256"
        }
      ],
      "name": "LogContribution",
      "type": "event"
    },
    {
      "anonymous": false,
      "inputs": [
        {
          "indexed": false,
          "name": "recipient",
          "type": "address"
        },
        {
          "indexed": false,
          "name": "value",
          "type": "uint256"
        }
      ],
      "name": "LogWithdrawalCompletion",
      "type": "event"
    },
    {
      "constant": false,
      "inputs": [],
      "name": "circuitBreaker",
      "outputs": [],
      "payable": false,
      "stateMutability": "nonpayable",
      "type": "function"
    },
    {
      "constant": true,
      "inputs": [],
      "name": "readCampaign",
      "outputs": [
        {
          "name": "projectTitle",
          "type": "string"
        },
        {
          "name": "desc",
          "type": "string"
        },
        {
          "name": "min",
          "type": "uint256"
        },
        {
          "name": "projectGoal",
          "type": "uint256"
        },
        {
          "name": "open",
          "type": "bool"
        },
        {
          "name": "count",
          "type": "uint256"
        }
      ],
      "payable": false,
      "stateMutability": "view",
      "type": "function"
    },
    {
      "constant": false,
      "inputs": [],
      "name": "contribute",
      "outputs": [],
      "payable": true,
      "stateMutability": "payable",
      "type": "function"
    },
    {
      "constant": false,
      "inputs": [],
      "name": "withdraw",
      "outputs": [],
      "payable": false,
      "stateMutability": "nonpayable",
      "type": "function"
    }
  ],
  "bytecode": "0x60806040526000600760016101000a81548160ff0219169083151502179055503480156200002c57600080fd5b506040516200104138038062001041833981018060405260a08110156200005257600080fd5b8101908080516401000000008111156200006b57600080fd5b828101905060208101848111156200008257600080fd5b8151856001820283011164010000000082111715620000a057600080fd5b50509291906020018051640100000000811115620000bd57600080fd5b82810190506020810184811115620000d457600080fd5b8151856001820283011164010000000082111715620000f257600080fd5b5050929190602001805190602001909291908051906020019092919080519060200190929190505050846001908051906020019062000133929190620001c1565b5083600390805190602001906200014c929190620001c1565b5082600481905550816005819055506001600760006101000a81548160ff021916908315150217905550806000806101000a81548173ffffffffffffffffffffffffffffffffffffffff021916908373ffffffffffffffffffffffffffffffffffffffff160217905550505050505062000270565b828054600181600116156101000203166002900490600052602060002090601f016020900481019282601f106200020457805160ff191683800117855562000235565b8280016001018555821562000235579182015b828111156200023457825182559160200191906001019062000217565b5b50905062000244919062000248565b5090565b6200026d91905b80821115620002695760008160009055506001016200024f565b5090565b90565b610dc180620002806000396000f3fe6080604052600436106100ba576000357c0100000000000000000000000000000000000000000000000000000000900463ffffffff16806316efd941146100bf5780633ccfd60b146100d657806342320eac146100ed57806347535d7b146101185780634a79d50c146101475780637284e416146101d75780637569b3d71461026757806375f12b21146102925780638c906720146102c15780638da5cb5b146103dd578063937e09b114610434578063d7bb99ba1461045f575b600080fd5b3480156100cb57600080fd5b506100d4610469565b005b3480156100e257600080fd5b506100eb610559565b005b3480156100f957600080fd5b50610102610767565b6040518082815260200191505060405180910390f35b34801561012457600080fd5b5061012d61076d565b604051808215151515815260200191505060405180910390f35b34801561015357600080fd5b5061015c610780565b6040518080602001828103825283818151815260200191508051906020019080838360005b8381101561019c578082015181840152602081019050610181565b50505050905090810190601f1680156101c95780820380516001836020036101000a031916815260200191505b509250505060405180910390f35b3480156101e357600080fd5b506101ec61081e565b6040518080602001828103825283818151815260200191508051906020019080838360005b8381101561022c578082015181840152602081019050610211565b50505050905090810190601f1680156102595780820380516001836020036101000a031916815260200191505b509250505060405180910390f35b34801561027357600080fd5b5061027c6108bc565b6040518082815260200191505060405180910390f35b34801561029e57600080fd5b506102a76108c2565b604051808215151515815260200191505060405180910390f35b3480156102cd57600080fd5b506102d66108d5565b60405180806020018060200187815260200186815260200185151515158152602001848152602001838103835289818151815260200191508051906020019080838360005b8381101561033657808201518184015260208101905061031b565b50505050905090810190601f1680156103635780820380516001836020036101000a031916815260200191505b50838103825288818151815260200191508051906020019080838360005b8381101561039c578082015181840152602081019050610381565b50505050905090810190601f1680156103c95780820380516001836020036101000a031916815260200191505b509850505050505050505060405180910390f35b3480156103e957600080fd5b506103f2610a41565b604051808273ffffffffffffffffffffffffffffffffffffffff1673ffffffffffffffffffffffffffffffffffffffff16815260200191505060405180910390f35b34801561044057600080fd5b50610449610a66565b6040518082815260200191505060405180910390f35b610467610a6c565b005b6000809054906101000a900473ffffffffffffffffffffffffffffffffffffffff1673ffffffffffffffffffffffffffffffffffffffff163373ffffffffffffffffffffffffffffffffffffffff1614151561052d576040517f08c379a00000000000000000000000000000000000000000000000000000000081526004018080602001828103825260158152602001807f596f75206d75737420626520746865206f776e6572000000000000000000000081525060200191505060405180910390fd5b600760019054906101000a900460ff1615600760016101000a81548160ff021916908315150217905550565b600760019054906101000a900460ff1615151561057557600080fd5b6000809054906101000a900473ffffffffffffffffffffffffffffffffffffffff1673ffffffffffffffffffffffffffffffffffffffff163373ffffffffffffffffffffffffffffffffffffffff16141515610639576040517f08c379a00000000000000000000000000000000000000000000000000000000081526004018080602001828103825260158152602001807f596f75206d75737420626520746865206f776e6572000000000000000000000081525060200191505060405180910390fd5b6000600760006101000a81548160ff02191690831515021790555060003073ffffffffffffffffffffffffffffffffffffffff163190506000809054906101000a900473ffffffffffffffffffffffffffffffffffffffff1673ffffffffffffffffffffffffffffffffffffffff166108fc829081150290604051600060405180830381858888f193505050501580156106d7573d6000803e3d6000fd5b507fd51f0a23ce80980fe2651d568650978fa322ae0db39b80bbafd804c8f84d6ea16000809054906101000a900473ffffffffffffffffffffffffffffffffffffffff1682604051808373ffffffffffffffffffffffffffffffffffffffff1673ffffffffffffffffffffffffffffffffffffffff1681526020018281526020019250505060405180910390a150565b60055481565b600760009054906101000a900460ff1681565b60018054600181600116156101000203166002900480601f0160208091040260200160405190810160405280929190818152602001828054600181600116156101000203166002900480156108165780601f106107eb57610100808354040283529160200191610816565b820191906000526020600020905b8154815290600101906020018083116107f957829003601f168201915b505050505081565b60038054600181600116156101000203166002900480601f0160208091040260200160405190810160405280929190818152602001828054600181600116156101000203166002900480156108b45780601f10610889576101008083540402835291602001916108b4565b820191906000526020600020905b81548152906001019060200180831161089757829003601f168201915b505050505081565b60065481565b600760019054906101000a900460ff1681565b60608060008060008060018054600181600116156101000203166002900480601f0160208091040260200160405190810160405280929190818152602001828054600181600116156101000203166002900480156109745780601f1061094957610100808354040283529160200191610974565b820191906000526020600020905b81548152906001019060200180831161095757829003601f168201915b5050505050955060038054600181600116156101000203166002900480601f016020809104026020016040519081016040528092919081815260200182805460018160011615610100020316600290048015610a115780601f106109e657610100808354040283529160200191610a11565b820191906000526020600020905b8154815290600101906020018083116109f457829003601f168201915b5050505050945060045493506005549250600760009054906101000a900460ff1691506006549050909192939495565b6000809054906101000a900473ffffffffffffffffffffffffffffffffffffffff1681565b60045481565b600760019054906101000a900460ff16151515610a8857600080fd5b6000809054906101000a900473ffffffffffffffffffffffffffffffffffffffff1673ffffffffffffffffffffffffffffffffffffffff163373ffffffffffffffffffffffffffffffffffffffff1614151515610b4d576040517f08c379a00000000000000000000000000000000000000000000000000000000081526004018080602001828103825260198152602001807f596f75206d757374206265206120636f6e7472696275746f720000000000000081525060200191505060405180910390fd5b60011515600760009054906101000a900460ff161515141515610bd8576040517f08c379a00000000000000000000000000000000000000000000000000000000081526004018080602001828103825260208152602001807f5468652063726f776466756e64206973206e6f206c6f6e676572206f70656e2e81525060200191505060405180910390fd5b60045434111515610c77576040517f08c379a00000000000000000000000000000000000000000000000000000000081526004018080602001828103825260378152602001807f54686520636f6e747269627574696f6e206d7573742062652061626f7665207481526020017f6865206d696e696d756d20436f6e747269627574696f6e00000000000000000081525060400191505060405180910390fd5b6001600260003373ffffffffffffffffffffffffffffffffffffffff1673ffffffffffffffffffffffffffffffffffffffff16815260200190815260200160002060006101000a81548160ff0219169083151502179055503373ffffffffffffffffffffffffffffffffffffffff166108fc349081150290604051600060405180830381858888f19350505050158015610d15573d6000803e3d6000fd5b506006600081548092919060010191905055507f370510fa7e8c74204b8d2fd52b7a0837e535ea0c1491fd4e13730ce825e405243334604051808373ffffffffffffffffffffffffffffffffffffffff1673ffffffffffffffffffffffffffffffffffffffff1681526020018281526020019250505060405180910390a156fea165627a7a72305820fb381422914d7a2e221e4c91e8c684b4787352b682a2a06e763e7459e70ca40e0029",
  "source": "pragma solidity ^0.5.0;\n\n//Importing OpenZeppelin's SafeMath Implementation\nimport \"./SafeMath.sol\";\n\ncontract CrowdFunding {\n    using SafeMath for uint256;\n\n    address payable public owner;\n    string public title;\n    mapping(address => bool) contributors; //bool to check if contributor supported a campaign\n    string public description;\n    uint256 public minimumContribution; //minimum constribution a contributor can send set by the creator\n    uint256 public targetGoal; //The target goal of the campaign set by the creator\n    uint256 public contributorsCount; //count of contributors for a single campaign\n    bool public isOpen; //bool to check if the crowdraise is still active or not\n\n    bool public stopped = false; //bool for Circuit Breaker\n\n\n    event LogContribution(address contributor, uint256 value);\n    event LogWithdrawalCompletion(address recipient, uint256 value);\n\n    constructor(string memory _title, string memory _description, uint256 _minimum, uint256 _goal, address payable _owner) public {\n        title = _title;\n        description = _description;\n        minimumContribution = _minimum;\n        targetGoal = _goal;\n        isOpen = true;\n        owner = _owner;\n    }\n\n     //modifier to check if the caller is the owner of the campaign\n    modifier isCreator {\n        require(msg.sender == owner, \"You must be the owner\");\n        _;\n    }\n\n     //modifier to check if the caller is a contributor of the campaign\n    modifier isContributor {\n        require(msg.sender != owner, \"You must be a contributor\");\n        _;\n    }\n\n    //Circuit Breaker Modifiers\n    modifier stopInEmergency {\n        require(!stopped);\n        _;\n    }\n    modifier onlyInEmergency {\n        require(!stopped);\n         _;\n    }\n\n    //Creator can freeze contract if they are aware of a bug\n    function circuitBreaker() public isCreator {\n       stopped = !stopped;\n    }\n\n    function readCampaign() public view returns(string memory projectTitle, string memory desc, uint256 min, uint256 projectGoal, bool open, uint256 count){\n        projectTitle = title;\n        desc = description;\n        min = minimumContribution;\n        projectGoal = targetGoal;\n        open = isOpen;\n        count = contributorsCount;\n    }\n\n    function contribute() public payable  stopInEmergency isContributor {\n        require(isOpen == true, \"The crowdfund is no longer open.\");\n        require(msg.value > minimumContribution, \"The contribution must be above the minimum Contribution\");\n         contributors[msg.sender] = true;\n        msg.sender.transfer(msg.value);\n        contributorsCount++;\n        emit LogContribution(msg.sender, msg.value);\n    }\n    function withdraw() public onlyInEmergency isCreator {\n        isOpen = false;\n        uint transferBalance = address(this).balance;\n        owner.transfer(transferBalance);\n        emit LogWithdrawalCompletion(owner, transferBalance);\n    }\n\n}\n\n",
  "sourcePath": "/Users/alexcoury/Projects/ConsenSys-Final_Project/contracts/CrowdFunding.sol",
  "compiler": {
    "name": "solc",
    "version": "0.5.0+commit.1d4f565a.Emscripten.clang"
  },
  "schemaVersion": "3.0.9",
  "updatedAt": "2019-07-31T00:21:08.098Z",
  "devdoc": {
    "methods": {}
  },
  "userdoc": {
    "methods": {}
  }
}